:100000000C9462000C948A000C948A000C948A0070
:100010000C948A000C948A000C948A000C948A0038
:100020000C948A000C948A000C948A000C948A0028
:100030000C948A000C948A000C948A000C948A0018
:100040000C9455030C948A000C9423030C94FD0229
:100050000C948A000C948A000C948A000C948A00F8
:100060000C948A000C948A000000000024002700F1
:100070002A0000000000250028002B0000000000DE
:1000800023002600290004040404040404040202DA
:100090000202020203030303030301020408102007
:1000A0004080010204081020010204081020000012
:1000B0000008000201000003040700000000000027
:1000C00000009F0511241FBECFEFD8E0DEBFCDBFDB
:1000D00011E0A0E0B1E0E0E6FCE002C005900D9286
:1000E000A634B107D9F721E0A6E4B1E001C01D9222
:1000F000A83FB207E1F710E0C2E6D0E004C02197C4
:10010000FE010E942306C136D107C9F70E949F0352
:100110000C942E060C940000CF92DF92EF92FF9287
:100120000F931F93CF93DF936C017A018B01C0E093
:10013000D0E0CE15DF0589F0D8016D918D01D60193
:10014000ED91FC910190F081E02DC6010995892B7C
:1001500011F47E0102C02196ECCFC701DF91CF914F
:100160001F910F91FF90EF90DF90CF900895089529
:1001700080E090E00895FC01538D448D252F30E000
:10018000842F90E0821B930B541710F0CF960895A4
:1001900001970895FC01918D828D981761F0828DF1
:1001A000DF01A80FB11D5D968C91928D9F5F9F73AB
:1001B000928F90E008958FEF9FEF0895FC01918D4D
:1001C000828D981731F0828DE80FF11D858D90E0BA
:1001D00008958FEF9FEF0895FC01918D228D892F57
:1001E00090E0805C9F4F821B91098F73992708953F
:1001F0008BE591E00E94EC0021E0892B09F420E0DE
:10020000822F0895FC01848DDF01A80FB11DA35A30
:10021000BF4F2C91848D90E001968F739927848F26
:10022000A689B7892C93A089B1898C9180648C931D
:10023000938D848D981306C00288F389E02D808108
:100240008F7D80830895EF92FF920F931F93CF933A
:10025000DF93EC0181E0888F9B8D8C8D981305C016
:10026000E889F989808185FD24C0F62E0B8D10E088
:100270000F5F1F4F0F731127E02E8C8DE8120CC0FB
:100280000FB607FCFACFE889F989808185FFF5CFA1
:10029000CE010E940201F1CF8B8DFE01E80FF11D0E
:1002A000E35AFF4FF0820B8FEA89FB8980818062DD
:1002B00007C0EE89FF896083E889F98980818064BD
:1002C000808381E090E0DF91CF911F910F91FF90AB
:1002D000EF900895CF93DF93EC01888D8823C9F0C8
:1002E000EA89FB89808185FD05C0A889B9898C913F
:1002F00086FD0FC00FB607FCF5CF808185FFF2CFDA
:10030000A889B9898C9185FFEDCFCE010E940201A9
:10031000E7CFDF91CF91089580E090E0892B29F01D
:100320000E94F80081110C9400000895833081F040
:1003300028F4813099F08230A1F008958730A9F037
:100340008830B9F08430D1F4809180008F7D03C073
:10035000809180008F7780938000089584B58F7797
:1003600002C084B58F7D84BD08958091B0008F77E1
:1003700003C08091B0008F7D8093B0000895CF932B
:10038000DF93282F30E0F901E255FF4F8491F90106
:10039000E656FF4FD491F901EA57FF4FC491CC23A1
:1003A00091F081110E949601EC2FF0E0EE0FFF1FFB
:1003B000E458FF4FA591B491EC91ED2381E090E0DA
:1003C00021F480E002C080E090E0DF91CF910895B9
:1003D0001F93CF93DF93282F30E0F901E255FF4FB1
:1003E0008491F901E656FF4FD491F901EA57FF4F86
:1003F000C491CC23C9F0162F81110E949601EC2FD5
:10040000F0E0EE0FFF1FEE58FF4FA591B4918FB7AC
:10041000F894111105C09C91ED2FE095E92302C0DD
:10042000EC91ED2BEC938FBFDF91CF911F9108954D
:10043000CF93DF9390E0FC01E656FF4F2491FC013F
:10044000EA57FF4F8491882361F190E0880F991F4C
:10045000FC01E859FF4FC591D491FC01EE58FF4FC4
:10046000A591B491611109C09FB7F8948881209536
:1004700082238883EC912E230BC0623061F49FB7F6
:10048000F8943881822F809583238883EC912E2BDA
:100490002C939FBF06C08FB7F894E8812E2B28833A
:1004A0008FBFDF91CF9108952FB7F89460914B01E2
:1004B00070914C0180914D0190914E012FBF089594
:1004C000009769F0FC0101900020E9F73197AF0136
:1004D000481B590BBC018BE591E00C948C0080E02B
:1004E00090E00895CF93DF930E946002EC0182E1D7
:1004F00091E00E9460028C0F9D1FDF91CF910895C3
:100500008F929F92AF92BF92CF92DF92EF92FF9223
:100510000F931F93CF93DF93CDB7DEB7A1970FB69D
:10052000F894DEBF0FBECDBF6C01990FEE08FF0837
:10053000F7FE31C0E0915B01F0915C010190F08128
:10054000E02D6DE28BE591E009958C0122273327A0
:10055000A9012C193D094E095F0919A2CE01819606
:100560007C019AE0892E912CA12CB12CCA01B901F1
:10057000A50194010E94EB05605DF70162937F0184
:10058000211531054105510589F7CF010E9460020F
:10059000800F911F1DC0A701960119A28E010F5D4A
:1005A0001F4F8AE0C82ED12CE12CF12CCA01B901D1
:1005B000A70196010E94EB05605DF80162938F012F
:1005C000211531054105510589F7CF010E946002CF
:1005D000A1960FB6F894DEBF0FBECDBFDF91CF91CD
:1005E0001F910F91FF90EF90DF90CF90BF90AF9051
:1005F0009F908F9008950E9429061F920F920FB628
:100600000F9211242F933F934F935F936F937F9398
:100610008F939F93AF93BF93EF93FF938BE591E0FD
:100620000E940201FF91EF91BF91AF919F918F9135
:100630007F916F915F914F913F912F910F900FBEDE
:100640000F901F9018951F920F920FB60F921124C2
:100650002F938F939F93EF93FF93E0916B01F09112
:100660006C018081E0917101F091720182FD12C0F4
:100670009081809174018F5F8F7320917501821733
:1006800051F0E0917401F0E0E55AFE4F958F8093B0
:10069000740101C08081FF91EF919F918F912F9103
:1006A0000F900FBE0F901F9018951F920F920FB6CC
:1006B0000F9211242F933F938F939F93AF93BF93E8
:1006C00080914B0190914C01A0914D01B0914E0150
:1006D00030914A0123E0230F2D3720F40196A11D0C
:1006E000B11D05C026E8230F0296A11DB11D209360
:1006F0004A0180934B0190934C01A0934D01B0931C
:100700004E018091460190914701A0914801B0911E
:1007100049010196A11DB11D8093460190934701A7
:10072000A0934801B0934901BF91AF919F918F91E0
:100730003F912F910F900FBE0F901F9018957894B6
:1007400084B5826084BD84B5816084BD85B58260D6
:1007500085BD85B5816085BD80916E008160809387
:100760006E001092810080918100826080938100F0
:100770008091810081608093810080918000816000
:10078000809380008091B10084608093B10080915B
:10079000B00081608093B00080917A008460809383
:1007A0007A0080917A00826080937A0080917A004A
:1007B000816080937A0080917A00806880937A00CB
:1007C0001092C100E0916B01F0916C0182E0808396
:1007D000E0916701F09168011082E0916901F09168
:1007E0006A018FEC808310927301E0916F01F091A8
:1007F000700186E08083E0916D01F0916E0180814F
:1008000080618083E0916D01F0916E01808188604C
:100810008083E0916D01F0916E018081806880831A
:10082000E0916D01F0916E0180818F7D808361E0A8
:100830008AE00E94180261E08BE00E94180261E0E9
:100840008CE00E94180261E08DE00E94180261E0D5
:1008500089E00E94180261E086E00E94180261E0CF
:1008600085E00E94180260E088E00E94180260E0C3
:1008700087E00E94180260E089E00E94E80160E0E1
:100880008AE00E94E80160E08BE00E94E80160E0FD
:100890008CE00E94E80160E08DE00E94E80161E0E8
:1008A00086E00E94E80161E085E00E94E80110E432
:1008B000CC24CA9483E0D82EE12CF12C10937C0038
:1008C00080917A00806480937A0080917A0086FD1E
:1008D000FCCFA091780080917900B0E0B82B24E69D
:1008E00030E00E941C06A70196010E94CC0557FD2E
:1008F00007C0E901253631052CF0C4E6D0E002C07E
:10090000C0E0D0E0D0935A01C0935901C431D10561
:100910002CF461E08AE00E94E80109C0C431D105ED
:1009200031F061E08AE00E94E80161E001C060E02E
:100930008BE00E94E801CD33D10584F061E08AE0CC
:100940000E94E80161E08BE00E94E80161E08CE038
:100950000E94E801CB35D10534F447C060E08CE05B
:100960000E94E80142C061E08AE00E94E80161E083
:100970008BE00E94E80161E08CE00E94E80161E008
:100980008DE00E94E80160E086E00E94E8010E949C
:1009900054028090550190905601A0905701B0905C
:1009A0005801DC01CB0188199909AA09BB09893EC4
:1009B0009340A105B10508F10E94540260935501CE
:1009C00070935601809357019093580185E191E00F
:1009D0000E9460028091590190915A010E94800208
:1009E00089E291E00E94720208C060E08DE00E94FE
:1009F000E80161E086E00E94E80187E00E94BF0113
:100A00009093540180935301892B59F560E085E060
:100A10000E94E80161E089E00E94E8010E9454021E
:100A20008090550190905601A0905701B0905801C8
:100A3000DC01CB0188199909AA09BB09893E9340B9
:100A4000A105B10570F00E945402609355017093A6
:100A5000560180935701909358018CE291E00E94D7
:100A6000720288E00E94BF01EC01909352018093D2
:100A700051010E9454028090550190905601A0901F
:100A80005701B0905801DC01CB0188199909AA09D6
:100A9000BB0989389341A105B105A0F00E94540219
:100AA00060935501709356018093570190935801BC
:100AB000CD2B41F460E089E00E94E80161E085E02F
:100AC0000E94E8018BE591E00E94EC0018161906DF
:100AD0009CF58BE591E00E94CA00909350018093B1
:100AE0004F018436910521F482E391E00E94720265
:100AF00080914F01909150018136910571F485E10B
:100B000091E00E9460028091590190915A010E94E7
:100B1000800289E291E00E94720280914F019091DF
:100B200050018336910541F460E085E00E94E801C0
:100B300061E089E00E94E8010E948C01BFCEEBE5F4
:100B4000F1E01382128288EE93E0A0E0B0E08483AB
:100B50009583A683B78384E091E09183808385ECBD
:100B600090E09587848784EC90E09787868780EC77
:100B700090E0918B808B81EC90E0938B828B82EC68
:100B800090E0958B848B86EC90E0978B868B118E12
:100B9000128E138E148E0895052E97FB1EF400946A
:100BA0000E94E30557FD07D00E94EB0507FC03D028
:100BB0004EF40C94E30550954095309521953F4FA8
:100BC0004F4F5F4F089590958095709561957F4F39
:100BD0008F4F9F4F0895A1E21A2EAA1BBB1BFD0148
:100BE0000DC0AA1FBB1FEE1FFF1FA217B307E4070C
:100BF000F50720F0A21BB30BE40BF50B661F771F64
:100C0000881F991F1A9469F7609570958095909543
:100C10009B01AC01BD01CF010895A29FB001B39F1C
:100C2000C001A39F700D811D1124911DB29F700DF5
:100C3000811D1124911D08950E940D06B7FF08958E
:100C4000821B930B0895EE0FFF1F0590F491E02D8A
:100C5000099481E090E0F8940C942E06F894FFCF6C
:100C60000000000023018C00BB006A01EC00CA00F8
:100C7000DE000D0A0054686520736F696C2069738B
:100C80002064727920627920002025005761746504
:100C900072004E6F207761746572202D2049746058
:060CA00073204F4B000021
:107800000C94343C0C94513C0C94513C0C94513CE1
:107810000C94513C0C94513C0C94513C0C94513CB4
:107820000C94513C0C94513C0C94513C0C94513CA4
:107830000C94513C0C94513C0C94513C0C94513C94
:107840000C94513C0C94513C0C94513C0C94513C84
:107850000C94513C0C94513C0C94513C0C94513C74
:107860000C94513C0C94513C11241FBECFEFD8E036
:10787000DEBFCDBF11E0A0E0B1E0ECE9FFE702C060
:1078800005900D92A230B107D9F712E0A2E0B1E065
:1078900001C01D92AD30B107E1F70E942D3D0C945F
:1078A000CC3F0C94003C982F959595959595959582
:1078B000905D8F708A307CF0282F295A8091C0000B
:1078C00085FFFCCF9093C6008091C00085FFFCCF60
:1078D0002093C6000895282F205DF0CF982F809127
:1078E000C00085FFFCCF9093C6000895EF92FF92F1
:1078F0000F931F93EE24FF2487018091C00087FD22
:1079000017C00894E11CF11C011D111D81E4E8164B
:1079100082E4F8068FE0080780E0180770F3E09132
:107920000401F091050109958091C00087FFE9CF1E
:107930008091C6001F910F91FF90EF9008950E94D3
:10794000763C982F8091C00085FFFCCF9093C600B5
:1079500091362CF490330CF09053892F089597555D
:10796000892F08951F930E949F3C182F0E949F3CCF
:107970001295107F810F1F9108951F93182F882350
:1079800021F00E94763C1150E1F71F9108951F935A
:10799000182F0E94763C803249F0809103018F5F5E
:1079A000809303018530C1F01F9108958091C0003C
:1079B00085FFFCCF84E18093C6008091C00085FFE5
:1079C000FCCF1093C6008091C00085FFFCCF80E102
:1079D0008093C6001F910895E0910401F091050184
:1079E00009951F9108950E94763C803241F0809164
:1079F00003018F5F80930301853081F008958091AA
:107A0000C00085FFFCCF84E18093C6008091C00058
:107A100085FFFCCF80E18093C6000895E0910401CA
:107A2000F09105010995089540E951E08823A1F0FE
:107A30002D9A28EE33E0FA013197F1F721503040CA
:107A4000D1F72D9828EE33E0FA013197F1F7215064
:107A50003040D1F7815061F708953F924F925F9285
:107A60006F927F928F929F92AF92BF92CF92DF924E
:107A7000EF92FF920F931F93CF93DF93000080E16B
:107A80008093C4001092C50088E18093C10086E015
:107A90008093C2005098589A259A81E00E94143D24
:107AA00024E1F22E9EE1E92E85E9D82E0FE0C02ECA
:107AB00010E1B12EAA24A394B1E49B2EA6E58A2E50
:107AC000F2E57F2EE0E26E2E79E4572E63E5462E36
:107AD00050E5352E0E94763C8033B1F18133B9F107
:107AE000803409F46FC0813409F476C0823409F41B
:107AF00085C0853409F488C0803531F1823521F1A3
:107B0000813511F1853509F485C0863509F48DC0BC
:107B1000843609F496C0843709F403C1853709F423
:107B200072C1863709F466C0809103018F5F80932C
:107B30000301853079F6E0910401F0910501099582
:107B40000E94763C803351F60E94F33CC3CF0E94E2
:107B5000763C803249F78091C00085FFFCCFF092DF
:107B6000C6008091C00085FFFCCF9092C600809136
:107B7000C00085FFFCCF8092C6008091C00085FFC9
:107B8000FCCF7092C6008091C00085FFFCCF609250
:107B9000C6008091C00085FFFCCF5092C600809146
:107BA000C00085FFFCCF4092C6008091C00085FFD9
:107BB000FCCF3092C6008091C00085FFFCCFB09210
:107BC000C60088CF0E94763C863808F4BDCF0E945C
:107BD000763C0E94F33C7ECF0E94763C803809F4CC
:107BE0009CC0813809F40BC1823809F43CC1883942
:107BF00009F48FC080E00E94C73C6CCF84E10E94F2
:107C0000BD3C0E94F33C66CF85E00E94BD3C0E94D3
:107C1000F33C60CF0E94763C809306010E94763C44
:107C2000809307010E94F33C55CF0E94763C80333D
:107C300009F41DC183E00E94BD3C80E00E94C73C66
:107C400049CF0E94763C809309020E94763C809343
:107C5000080280910C028E7F80930C020E94763C79
:107C6000853409F415C18091080290910902892B8D
:107C700089F000E010E00E94763CF801E85FFE4FDA
:107C800080830F5F1F4F80910802909109020817AF
:107C9000190788F30E94763C803209F045CF809125
:107CA0000C0280FF01C16091060170910701660F0F
:107CB000771F7093070160930601A0910802B091AD
:107CC00009021097C9F0E8E0F1E09B01AD014E0F09
:107CD0005F1FF999FECF32BD21BD819180BDFA9A17
:107CE000F99A2F5F3F4FE417F50799F76A0F7B1F4B
:107CF00070930701609306018091C00085FFFCCF5F
:107D0000F092C6008091C00085FFFCCFB092C60003
:107D1000E1CE83E00E94C73CDDCE82E00E94C73CFA
:107D2000D9CE0E94763C809309020E94763C8093D3
:107D300008028091060190910701880F991F909386
:107D40000701809306010E94763C853409F4A6C0A1
:107D500080910C028E7F80930C020E94763C8032D0
:107D600009F0B8CE8091C00085FFFCCFF092C6002C
:107D7000609108027091090261157105B9F140E046
:107D800050E080910C02A82FA170B82FB27011C0E2
:107D9000BB2309F45CC0E0910601F0910701319624
:107DA000F0930701E09306014F5F5F4F46175707B7
:107DB000E8F4AA2369F3F999FECF209106013091E6
:107DC000070132BD21BDF89A90B58091C00085FFB2
:107DD000FCCF9093C6002F5F3F4F30930701209355
:107DE00006014F5F5F4F4617570718F38091C00099
:107DF00085FDE5CE8091C00085FFF8CFE0CE81E023
:107E00000E94C73C67CE0E94763C803209F08CCE3F
:107E10008091C00085FFFCCFF092C6008091C00029
:107E200085FFFCCFE092C6008091C00085FFFCCFAB
:107E3000D092C6008091C00085FFFCCFC092C600E2
:107E40008091C00085FFFCCFB092C60043CEE09188
:107E50000601F091070194918091C00085FFFCCF4D
:107E60009093C6009CCF80E10E94C73C33CE0E9415
:107E7000763C0E94763C182F0E94763C112309F430
:107E800083C0113009F484C08FE00E94C73C22CE29
:107E900080910C02816080930C02E5CE80910C02EF
:107EA000816080930C0259CF809107018823880F4D
:107EB000880B8A2180930B02809106019091070123
:107EC000880F991F90930701809306018091080203
:107ED00080FF09C080910802909109020196909359
:107EE000090280930802F894F999FECF1127E091D6
:107EF0000601F0910701C8E0D1E08091080290915D
:107F00000902103091F40091570001700130D9F34B
:107F100003E000935700E89500915700017001308D
:107F2000D9F301E100935700E89509901990009169
:107F3000570001700130D9F301E000935700E89534
:107F40001395103498F011270091570001700130FB
:107F5000D9F305E000935700E895009157000170B0
:107F60000130D9F301E100935700E895329602976A
:107F700009F0C7CF103011F00296E5CF112480919F
:107F8000C00085FFB9CEBCCE8EE10E94C73CA2CD19
:0C7F900085E90E94C73C9ECDF894FFCF0D
:027F9C00800063
:040000030000780081
:00000001FF
